@ba20 ; Affinity 
@bb01 ; MemBank 
@bc03 ; Command 
:020000020A00F2
:1000000088C087C081E084C082E082C083E080C075
:1000100084E07EC085E07CC086E07AC087E078C05E
:1000200088E076C089E074C08AE072C08BE070C05E
:100030008CE06EC08DE06CC08EE06AC08FE068C05E
:1000400080E166C081E164C082E162C083E160C09A
:1000500084E15EC085E15CC086E15AC087E158C09A
:1000600088E156C089E154C08AE152C08BE150C09A
:100070008CE14EC08DE14CC08EE14AC08FE148C09A
:1000800080E246C081E244C082E242C083E240C0D6
:1000900084E23EC085E23CC086E23AC087E238C0D6
:1000A00088E236C089E234C08AE232C08BE230C0D6
:1000B0008CE22EC08DE22CC08EE22AC08FE228C0D6
:1000C00080E326C081E324C082E322C083E320C012
:1000D00084E31EC085E31CC086E31AC087E318C012
:1000E00088E316C089E314C08AE312C08BE310C012
:1000F0008CE30EC08DE30CC08EE30AC08FE308C012
:1001000001000FD203000000EBF82767A0EA7B5440
:10011000FFCFA895F8942224EFE1F9E6EDBFFEBFEA
:100120004F98479AD3D0A895E8EDE4BFE7E0E09375
:100130000001EAD0E9D086D0E7D0A4D02ED0A0E04C
:10014000B0E1C0E0D0EBE0E0F0E9099011900114DB
:1001500019F41197D1F71AC036D0E2E2FBE6C2E0FB
:1001600010D129D1F9F744D0E2E4FBE6C1E009D18E
:10017000C0E0D0EBE6D0E2E2FBE6C2E002D1A0E0D4
:10018000B0E1C2E4DBE6E2E2FBE601D148D0E2E422
:10019000FBE6C1E0F6D08FEFFEC0C2EAD1EAB4D0F0
:1001A000B3C01B5B33336D2E2E2E636F6D70617287
:1001B000696E67204E455720776974682043555211
:1001C0001B5B6D0A0D00CEECD1EA9ED09DC01B5B7F
:1001D00033336D2E2E2E636865636B696E67204224
:1001E0004C44206261636B75701B5B6D0A0D0000EF
:1001F000C8EFD1EA89D088C01B5B33336D2E2E2E19
:10020000696E7374616C6C696E67206E65772042ED
:100210004C4420636F64651B5B6D0A0D0000C6E2F1
:10022000D2EA72D071C01B5B39326D2E2E2E636CF8
:1002300065616E75701B5B6D0A0D000029928A95D1
:10024000E9F70895E2E4FBE60E94BD11C2E2D9E6B7
:100250000E94BF11E2E2FBE60E94BD11C2E2D9E6B4
:100260000C94BF11E2E4FBE60E94C1110C94B111A1
:10027000C0E0D8E6A6E1B0E00ED0C0E0D8E6AAE142
:10028000B0E014C0C0E0D8E680E0D8DF00C0EFEFF7
:10029000E0931B68089545D0F001A095B095C095F6
:1002A000D095A083B183C283D38308953AD0F0015F
:1002B00080830895E2E0F2E000C0EF23F095009023
:1002C00020690F22E02904C0E0E002C0EFEF00C087
:1002D000E093206900C0E09120690C948F11EF2316
:1002E000F095009021690F22E02906C0E0E004C0EB
:1002F000E5E502C0EFEF00C0E093216900C0E091A6
:1003000021690C948D11089508950C9410000C949B
:1003100011000C9412000C9413000C9414000C9413
:1003200015000C9416000C9417000C9418000C94F3
:1003300019000C941A000C941B000C941C000C94D3
:100340001D000C941E000C941F000C9420000C94B3
:1003500021000C9422000C9423000C9424000C9493
:1003600025000C9426000C9427000C9428000C9473
:1003700029000C942A000C942B000C942C000C9453
:100380002D000C942E000C942F000C9430000C9433
:1003900031000C9432000C9433000C9434000C9413
:1003A00035000C9436000C9437000C9438000C94F3
:1003B00039000C943A000C943B000C943C000C94D3
:1003C0003D000C943E000C943F000C9440000C94B3
:1003D00041000C9442000C9443000C9444000C9493
:1003E0004500FFFFFFFFFFFFFFFFFFFFFFFFFFFFD6
:1010000087C0FFCFFFC7FFCFFFC7FFCFFFC7FFCF0F
:10101000FFC7FFCFFFC7FFCFFFC7FFCFFFC7FFCF80
:10102000FFC7FFCFFFC7FFCFFFC7FFCFFFC7FFCF70
:10103000FFC7FFCFFFC7FFCFFFC7FFCFFFC7FFCF60
:10104000FFC7FFCFFFC7FFCFFFC7FFCFFFC7FFCF50
:10105000FFC7FFCFFFC7FFCFFFC7FFCFFFC7FFCF40
:10106000FFC7FFCFFFC7FFCFFFC7FFCFFFC7FFCF30
:10107000FFC7FFCFFFC7FFCFFFC7FFCFFFC7FFCF20
:10108000FFC7FFCFFFC7FFCFFFC7FFCFFFC7FFCF10
:10109000FFC7FFCFFFC7FFCFFFC7FFCFFFC7FFCF00
:1010A000FFC7FFCFFFC7FFCFFFC7FFCFFFC7FFCFF0
:1010B000FFC7FFCFFFC7FFCFFFC7FFCFFFC7FFCFE0
:1010C000FFC7FFCFFFC7FFCFFFC7FFCFFFC7FFCFD0
:1010D000FFC7FFCFFFC7FFCFFFC7FFCFFFC7FFCFC0
:1010E000FFC7FFCFFFC7FFCFFFC7FFCFFFC7FFCFB0
:1010F000FFC7FFCFFFC7FFCFFFC7FFCFFFC7FFCFA0
:1011000001000BD201000000EBF82767FCD732206A
:10111000A895F8942224EFB3E0931C68E8EDE4BFAF
:1011200020921001EFE1F9E6EDBFFEBF4F98479A1C
:10113000499A419AE0E0F8E02682A0E8B1E0A08771
:10114000B1872582A3E0A783A0E4A683A9E0A093AA
:10115000000A2092200A2092210AA1E0A093000B0D
:101160002092010BAFEFA0930C0BA0930D0B2092DC
:101170005204209277044298679832D4A895E8EDFB
:10118000E4BFE7E0E09300014BD44AD4E7D348D46E
:1011900000D480911B68821101D4EFB3E0931C68E6
:1011A000E0911B68E21105C0E0911168E21183C271
:1011B00000C0C0E0D8E65DD3F993E9935CD3F9931E
:1011C000E99367D3E4E0F8E6D193C193B193A19397
:1011D000A0910768AF77A16020925069A0935169F0
:1011E000EBD2A0910091B0910191B883A983A09115
:1011F00000A1B09101A1BA83AB832C82E3D22882F3
:1012000029822A822B822C82E0D2E0E0F1E9A081BF
:10121000B181B883A9839BB781E08BBFA081B181E5
:101220009BBFBA83AB832C82E8EEF3E0E0932369A3
:10123000F09324690091FE14E0910468E09325691D
:1012400021E08FC180E5ECD39091366980E0933046
:1012500049F08A81943031F031FD6DC18D81983033
:1012600009F06DC1209223692092246958D123E0AE
:1012700082C2F0D184E4D4D38E8180930A688F81B6
:1012800080930B68888580930868898580930968B6
:101290008A8545D127E073C2E2D180E7C1D327E038
:1012A00078C2DDD181E4BCD3888580930C688985C0
:1012B00080930D688A8582FD04D2837080931168C3
:1012C00028E069D2809111688211EED14AC19091D3
:1012D0003669953011F0983011F4EA8116C09730D4
:1012E00011F09A3019F4C0D1EC810FC0993011F08F
:1012F0009C3019F4AFD1EE8108C09B3011F09E30C4
:1013000019F4ADD1E88501C01AC1EA3070F4F0E0FB
:10131000E557F64F0994E1C0E1C0E2C0E2C0E1C088
:10132000E0C0E3C0E4C0E9C0EEC01BC19DD182E4CF
:1013300077D38C818093A46B38854985823011F4F2
:1013400030FD0FC128E1E19A30FD28D230FF29D2CB
:10135000C7E0E4E8FBE6C9D2C091A46BE6D1C5D2F0
:10136000DBD08E819F81DAD1EDEEDE2EE8EBCE2E42
:10137000E3E8BE2EE0E2AE2EEFEF9E2E8E2E7E2E06
:101380006E2EB9D1EEC070D183E44AD30C8009141B
:101390000D8008040E8007040F80060428E211F473
:1013A00028E4A9D1D6C160D182E53AD328E7AED1ED
:1013B000D7C15AD184E534D328E5D2C155D185E4CB
:1013C0002FD328E03E7F4427C4C14ED186E428D3E2
:1013D000ACD190913669963019F08C8130FD8DD268
:1013E00030FD8FD2BEC030FDA4C0909136699330DD
:1013F00009F405C0953011F437D101C0A0C082E7CF
:101400000FD393D15CD28093486911D058D2809386
:1014100049690DD054D280934A6909D050D2809343
:101420004B6905D09295909590934C69DBC1991FBB
:1014300090FD0895089487957BD18695E9F70895E6
:1014400030FF77C090913669933009F422C095300F
:1014500011F40AD11EC09B3011F4229606C09D30B3
:1014600019F402D1249601C06AC087E7D9D278E086
:101470006991089467955CD16695E9F77A95C1F70B
:10148000A8E0B0E02897E4E8FBE631D2A8E0B0E0BD
:101490001BC0C1D081F478F0A0E0B2E760E8BBD017
:1014A00011F4E8F748F08FB743D18FBF6795B8F7CD
:1014B0006D93A13898F355C0A050B247C0E0D2E771
:1014C000E4E8FBE614D200C0C4E8DBE62ED130FD30
:1014D00012D230FD1CD245C044C056C154D115C2F1
:1014E00053C151D1E1D002E03CC050D13AC09E304E
:1014F00009F037C04BD117D234C09E3009F031C04B
:1015000045D10FD22EC03FD1C1E038D2CF3019F42F
:10151000D23D09F476D5F9C1C6E2D9E60895909195
:101520000A0B982392111DC0089584E40CC082E533
:101530000AC08DE408C083E406C085E404C08CE4DE
:1015400002C084E500C06CD20CC0C0912369D09168
:101550002469219730F0C0932369D093246909F45A
:10156000C1CFEFE1F9E6EDBFFEBF59D259D2B0D0FD
:101570002CBA6AE050D01130A1F76A95D9F74BD058
:1015800081F7E8F3913808F43094C6DF7727EE2727
:1015900061E041D0B1F6661FE0F769937627C43366
:1015A00070F639D071F620F0E627FFE8E081F0CF41
:1015B0007211C3CFE09337693D7FE2113260C652AA
:1015C000C0933669A9DFE881ED3F69F000FD8ACF5D
:1015D000F981EF2BEA81EF2B29F4E0913669E330B2
:1015E00009F480CFB2CF6981603F08F4BACF6F7041
:1015F000ECE2F8E9660F660FE60FF21D0190022299
:1016000009F497CF019000FE02C031FD94CF019004
:101610001080F0010994A89511270AB0032402FE56
:10162000FCCF9091200A2092200A2092210A0AB031
:10163000032402FCFCCF8091200A2092200A2092F1
:10164000210A8D31111F813810FD8F30111F012E9D
:1016500006940895E0E0F8E684E01DD00CC0E4E0D4
:10166000F8E686E018D007C00FD029F00AD019F0AC
:1016700005D009F00CD0821174CF0895EAE0F8E6A5
:1016800009C0E8E0F8E606C0ECE0F8E603C0EEE0EA
:10169000F8E600C082E0DE01129601901D90011470
:1016A00011F48A95D1F70895C1E068D1CF3011F4D3
:1016B000D23D09F00895B4D1E09105A1E0FD01D03B
:1016C0009FC4E8EDE0933400E5E8E093011008954D
:1016D000E091060BE0FF0895E093060BE09122698C
:1016E000E395E0932269E6FF01C002C079D18AC187
:1016F00079D1E3E08DC117D00E010EDF6A8A7B8AB3
:101700008C8A9D8A0F8A188E298E089505DF6A8833
:101710007B888C889D888F89988D00C006D0CBD01F
:10172000C80FD91FC2C001D0F8C0E4E6FBE6089597
:1017300030F0969487947794679430F009C096942B
:1017400087947794679420F09D248C247B246A24CA
:1017500008953ED0988289827A826B822C8243C01F
:10176000E2DFDE018091A46B33D088832982BA83C3
:10177000AB832C8238C0E0E0F8E692E02FC0E4E0D2
:10178000F8E690E02BC0E19A1DD02DC0E19A1DD063
:101790002AC015D028C0E19A0FD025C0CCE6D8E9E0
:1017A00022C0C091A46BB7D0DE0112D00882B983E9
:1017B000AA832B822C8217C0C5E5D9E60895C0E51F
:1017C000D9E60895CAE5D9E60895CFE5D9E60895A2
:1017D000C8E4D9E60895A0E4B9E60895F9DF84E005
:1017E000B4D09883F5DFF7DFA4D000C097E712D01C
:1017F0009DEA10D0F0DF86E09091040895FFFCCFC1
:101800009D91909302088A95B9F78AE209D1E19BEC
:10181000A8CE08950090200A0916E0F32092200A2D
:101820002092210A529B779982CE089501002209C5
:101830000201390904014C090401510900006C0A34
:1018400000006C0A00006C0AFF0167090801960994
:101850007001C3092001D3094001D9091001DE0933
:101860001001E5091000F3091000200A02003214EB
:10187000FFFF0C9410000C9411000C9412000C94B7
:1018800013000C9414000C9415000C9416000C9486
:1018900017000C9418000C9419000C941A000C9466
:1018A0001B000C941C000C941D000C941E000C9446
:1018B0001F000C9420000C9421000C9422000C9426
:1018C00023000C9424000C9425000C9426000C9406
:1018D00027000C9428000C9429000C942A000C94E6
:1018E0002B000C942C000C942D000C942E000C94C6
:1018F0002F000C9430000C9431000C9432000C94A6
:1019000033000C9434000C9435000C9436000C9485
:1019100037000C9438000C9439000C943A000C9465
:101920003B000C943C000C943D000C943E000C9445
:101930003F000C9440000C9441000C9442000C9425
:1019400043000C9444000C944500019009928A9540
:10195000E1F7089529928A95E9F70895E4E8FBE60E
:101960000E94710CC4E6D9E60E94730CE4E6FBE623
:101970000E94710CC4E6D9E60C94730CE4E8FBE613
:101980000E94750C0C94650CC0E0D8E6A6E1B0E0AE
:101990000ED0C0E0D8E6AAE1B0E014C0C0E0D8E6BE
:1019A00080E0D8DF00C0EFEFE0931B6808956DDFA3
:1019B000F001A095B095C095D095A083B183C28366
:1019C000D383089562DFF00180830895E2E0F2E0BE
:1019D00000C0EF23F095009020690F22E02904C099
:1019E000E0E002C0EFEF00C0E093206900C0E091AA
:1019F00020690C94430CEF23F095009021690F228D
:101A0000E02906C0E0E004C0E5E502C0EFEF00C059
:101A1000E093216900C0E09121690C94410C089584
:101A20000895FFFFFFFFFFFFFFFFFFFFFFFFFFFF27
:00000001FF
; 
; *** EOF 
