@ba20 ; Affinity 
@bb01 ; MemBank 
@bc03 ; Command 
:020000020A00F2
:1000000088C087C081E084C082E082C083E080C075
:1000100084E07EC085E07CC086E07AC087E078C05E
:1000200088E076C089E074C08AE072C08BE070C05E
:100030008CE06EC08DE06CC08EE06AC08FE068C05E
:1000400080E166C081E164C082E162C083E160C09A
:1000500084E15EC085E15CC086E15AC087E158C09A
:1000600088E156C089E154C08AE152C08BE150C09A
:100070008CE14EC08DE14CC08EE14AC08FE148C09A
:1000800080E246C081E244C082E242C083E240C0D6
:1000900084E23EC085E23CC086E23AC087E238C0D6
:1000A00088E236C089E234C08AE232C08BE230C0D6
:1000B0008CE22EC08DE22CC08EE22AC08FE228C0D6
:1000C00080E326C081E324C082E322C083E320C012
:1000D00084E31EC085E31CC086E31AC087E318C012
:1000E00088E316C089E314C08AE312C08BE310C012
:1000F0008CE30EC08DE30CC08EE30AC08FE308C012
:1001000001000FD2030000002075DE67746BD53B41
:10011000FFCFA895F8942224EFE1F9E6EDBFFEBFEA
:100120004F98479AF7D015D114D19AD012D1B8D0A0
:10013000C9D02FD0A0E0B0E1C0E0D0EBE0E0F0E922
:1001400009901190011419F41197D1F71BC037D001
:10015000E2E2FBE6C2E03AD153D109F045C144D016
:10016000E2E4FBE6C1E032D1C0E0D0EB0FD1E2E245
:10017000FBE6C2E02BD1A0E0B0E1C2E4DBE6E2E2C4
:10018000FBE62AD148D0E2E4FBE6C1E01FD18FEFC5
:1001900027C1CAE9D1EADDD0DCC01B5B33336D2E49
:1001A0002E2E636F6D706172696E67204E45572009
:1001B00077697468204355521B5B6D0A0D00C6ECCD
:1001C000D1EAC7D0C6C01B5B33336D2E2E2E6368B9
:1001D00065636B696E6720424C44206261636B7596
:1001E000701B5B6D0A0D0000C0EFD1EAB2D0B1C048
:1001F0001B5B33336D2E2E2E696E7374616C6C69CC
:100200006E67206E657720424C4420636F64651BE7
:100210005B6D0A0D0000CEE1D2EA9BD09AC01B5B59
:1002200039326D2E2E2E636C65616E75701B5B6DA1
:100230000A0D0000F89434D0F89444D00C94F411D2
:10024000F89424D035D00C94F4110E948A11F894BB
:10025000A895FFCF0C94F61129928A95E9F7089595
:10026000E2E4FBE60E94E211C2E2D9E60E94E41158
:10027000E2E2FBE60E94E211C2E2D9E60C94E4114C
:10028000E2E4FBE60E94E6110C94D611C0E0D8E649
:10029000AAE1B0E01FC0C0E0D8E6AEE1B0E027C000
:1002A000C0E0D8E680E4D8DFEFEFE0931F68089560
:1002B000C0E4D8E6AAE3B0E00DC0C0E4D8E6AEE3FF
:1002C000B0E015C0C0E4D8E680E8C6DFEFEFE09309
:1002D0007F6808950E94B611F001A095B095C09571
:1002E000D095A083B183C283D383248208950E94D2
:1002F000B611F00180830895E2E0F2E000C0EF2340
:10030000F095009020690F22E02906C0E0E004C0CB
:10031000EFEF02C0E1E000C0E093206900C0E0918F
:1003200020690C94B411EF23F095009021690F22FD
:10033000E02908C0E0E006C0E5E504C0EFEF02C038
:10034000E3E000C0E093216900C0E09121690C94D2
:10035000B21108950C9410000C9411000C9412002A
:100360000C9413000C9414000C9415000C941600BB
:100370000C9417000C9418000C9419000C941A009B
:100380000C941B000C941C000C941D000C941E007B
:100390000C941F000C9420000C9421000C9422005B
:1003A0000C9423000C9424000C9425000C9426003B
:1003B0000C9427000C9428000C9429000C942A001B
:1003C0000C942B000C942C000C942D000C942E00FB
:1003D0000C942F000C9430000C9431000C943200DB
:1003E0000C9433000C9434000C9435000C943600BB
:1003F0000C9437000C9438000C9439000C943A009B
:100400000C943B000C943C000C943D000C943E007A
:100410000C943F000C9440000C9441000C9442005A
:100420000C9443000C9444000C9445000C9446003A
:100430000C944700FFFFFFFFFFFFFFFFFFFFFFFFE1
:1010000087C0FFCFFFC7FFCFFFC7FFCFFFC7FFCF0F
:10101000FFC7FFCFFFC7FFCFFFC7FFCFFFC7FFCF80
:10102000FFC7FFCFFFC7FFCFFFC7FFCFFFC7FFCF70
:10103000FFC7FFCFFFC7FFCFFFC7FFCFFFC7FFCF60
:10104000FFC7FFCFFFC7FFCFFFC7FFCFFFC7FFCF50
:10105000FFC7FFCFFFC7FFCFFFC7FFCFFFC7FFCF40
:10106000FFC7FFCFFFC7FFCFFFC7FFCFFFC7FFCF30
:10107000FFC7FFCFFFC7FFCFFFC7FFCFFFC7FFCF20
:10108000FFC7FFCFFFC7FFCFFFC7FFCFFFC7FFCF10
:10109000FFC7FFCFFFC7FFCFFFC7FFCFFFC7FFCF00
:1010A000FFC7FFCFFFC7FFCFFFC7FFCFFFC7FFCFF0
:1010B000FFC7FFCFFFC7FFCFFFC7FFCFFFC7FFCFE0
:1010C000FFC7FFCFFFC7FFCFFFC7FFCFFFC7FFCFD0
:1010D000FFC7FFCFFFC7FFCFFFC7FFCFFFC7FFCFC0
:1010E000FFC7FFCFFFC7FFCFFFC7FFCFFFC7FFCFB0
:1010F000FFC7FFCFFFC7FFCFFFC7FFCFFFC7FFCFA0
:1011000001000BD2010000002075DE671961C2FBEF
:10111000A895F8942224E8EDE4BF20921001EFE1B5
:10112000F9E6EDBFFEBFE0E0F9E6C0E0DAE02192CB
:101130002197E9F797D409F09AD4A6D409F0A9D455
:10114000EFB3E0930268E0910468E395F999E093C6
:101150000468E0910368E395FB99E0930368E091EC
:101160000568E395FC99E0930568E0910068F091CB
:1011700001683196E0930068F09301686ED44F984F
:10118000479A499A419AE0E0F8E02682A0E8B1E067
:10119000A087B1872582A3E0A783A0E4A683A9E066
:1011A000A093000A2092200A2092210AA1E0A09395
:1011B000000B2092010BAFEFA0930C0BA0930D0B33
:1011C000209252042092770442986798A9D4A8D418
:1011D0002ED4A6D4E0917F68E21175C0E0915068EA
:1011E000E2111AC370C00C9410000C9411000C94FE
:1011F00012000C9413000C9414000C9415000C9421
:1012000016000C9417000C9418000C9419000C9400
:101210001A000C941B000C941C000C941D000C94E0
:101220001E000C941F000C9420000C9421000C94C0
:1012300022000C9423000C9424000C9425000C94A0
:1012400026000C9427000C9428000C9429000C9480
:101250002A000C942B000C942C000C942D000C9460
:101260002E000C942F000C9430000C9431000C9440
:1012700032000C9433000C9434000C9435000C9420
:1012800036000C9437000C9438000C9439000C9400
:101290003A000C943B000C943C000C943D000C94E0
:1012A0003E000C943F000C9440000C9441000C94C0
:1012B00042000C9443000C9444000C9445000C94A0
:1012C00046000C944700C0E4D8E68DDFF993E9931B
:1012D0008CDFF993E99397DFE4E4F8E6D193C193C7
:1012E000B193A193A0914768AF77A1602092506914
:1012F000A093516924D3A0910091B0910191B8833A
:10130000A983A09100A1B09101A1BA83AB832C82E3
:101310001CD3288229822A822B822C8219D3E0E0D6
:10132000F1E9A081B181B883A9839BB781E08BBF2C
:10133000A081B1819BBFBA83AB832C82E8EEF3E03E
:10134000E0932369F09324690091FE144427E0910F
:101350004468E093256921E0B5C180E5E1D390912F
:10136000366980E0FA81943081F08B81953069F0A4
:1013700031FD91C18D81983009F091C1EA81E093EE
:101380002068EB81E0932168FC81F0932268209231
:1013900023692092246973D123E09AC20CD284E499
:1013A000BFD38E8180934A688F8180934B688885F4
:1013B000809348688985809349688A8560D127E051
:1013C0008BC2FED180E7ACD327E092C2F9D181E491
:1013D000A7D3909136699D3080E090E011F09B8515
:1013E0008C8590934E6880934F68888580934C6875
:1013F000898580934D688A8582FD14D2837080939D
:10140000506828E082D2809150688211FED15AC182
:1014100090913669953011F0983011F4EA8116C038
:10142000973011F09A3019F4D0D1EC810FC0993077
:1014300011F09C3019F4BFD1EE8108C09B3011F03F
:101440009E3019F4BDD1E88501C029C1EC3080F48B
:10145000F0E0E45DF54F0994E3C0E3C0E4C0E4C00C
:10146000E3C0E2C0E5C0E5C0EBC0F1C0F9C0FEC01A
:1014700029C1ABD182E454D38C818093A46B38858D
:101480004985823011F430FD1DC128E1E19A30FD1B
:1014900040D230FF41D2C7E0E4E8FBE6E0DEC09195
:1014A000A46BF0D1DCDEE8D08E819F81E4D1EDEE3B
:1014B000DE2EE8EBCE2EE3E8BE2EE0E2AE2EEFEF1E
:1014C0009E2E8E2E7E2E6E2EC3D1FCC07ED183E446
:1014D00027D30C8009140D8008040E8007040F80A8
:1014E000060428E211F428E4B3D1E0C16ED182E50C
:1014F00017D328E7B8D1E1C168D184E511D328E535
:10150000DCC163D185E40CD328E03E7F4427CEC103
:101510005CD186E405D3B6D190913669963019F046
:101520008C8130FDA4DE30FDA6DECCC030FDB1C024
:1015300090913669933009F405C0953011F445D186
:1015400001C0ADC082E7ECD29DD173DE80934869C3
:1015500011D06FDE809349690DD06BDE80934A69AC
:1015600009D067DE80934B6905D092959095909352
:101570004C69FBC1991F90FD08950894879585D10A
:101580008695E9F7089530FF84C0909136699330CD
:1015900009F422C0953011F418D11EC09B3011F40B
:1015A000229606C09D3019F410D1249601C077C050
:1015B00087E7B6D278E069910894679566D1669519
:1015C000E9F77A95C1F7A8E0B0E02897E4E8FBE6F0
:1015D00048DEA8E0B0E01BC0CFD081F478F0A0E0F6
:1015E000B2E760E8C9D011F4E8F748F08FB74DD101
:1015F0008FBF6795B8F76D93A13898F363C0A0507B
:10160000B247C0E0D2E7E4E8FBE62BDE00C0C4E866
:10161000DBE638D130FD29DE30FD33DE53C052C069
:1016200060C15ED12CCE5DC15BD1EFD002E04AC07B
:101630005CC19E3009F046C057D124D12EDE42C095
:101640009E3009F03FC050D11DD125DE3BC048D1AE
:10165000C1E0FDD1CF3019F4D23D09F4D2D40FCE80
:101660003FD1C1E00FD1FBDD8FEF03CE39D1C3E015
:1016700009D1F5DD8FEFFDCDC6E2D9E60895909151
:101680000A0B982392111EC0089584E40CC082E5D1
:101690000AC08DE408C083E406C085E404C08CE47D
:1016A00002C084E500C03CD20DC0C0912369D09136
:1016B0002469219738F0C0932369D093246911F4E9
:1016C000B1D0B3CFEFE1F9E6EDBFFEBF29D228D20A
:1016D000B0D02CBA6AE050D01130A1F76A95D9F792
:1016E0004BD081F7E8F3913808F43094C5DF7727C1
:1016F000EE2761E041D0A9F6661FE0F769937627EF
:10170000C63368F639D069F620F0E627FFE8E081B5
:10171000F0CF7211C2CFE09337693D7FE2113260A2
:10172000C652C0933669A8DFE881ED3F69F000FD3D
:101730007CCFF981EF2BEA81EF2B29F4E091366918
:10174000E33009F472CFB1CF6981603F08F4BACFBA
:101750006F70E2EBF9E9660F660FE60FF21D01907C
:10176000022209F496CF019000FE02C031FD93CF12
:1017700001901080F0010994A89511270AB0032464
:1017800002FEFCCF9091200A2092200A2092210A8A
:101790000AB0032402FCFCCF8091200A2092200A88
:1017A0002092210A8D31111F813810FD8F30111FB9
:1017B000012E06940895E0E4F8E684E01DD00CC004
:1017C000E4E4F8E686E018D007C00FD029F00AD08C
:1017D00019F005D009F00CD0821174CF0895EAE415
:1017E000F8E609C0E8E4F8E606C0ECE4F8E603C071
:1017F000EEE4F8E600C082E0DE01129601901D9052
:10180000011411F48A95D1F70895C1E020D1CF30A9
:1018100011F4D23D09F0089583D1E09105A1E0FDD6
:1018200001D0EEC3E8EDE0933400E5E8E093011069
:101830000895F0E44211F0E1E0914801E09149019E
:10184000EF23E21103C000C048D15BC14AD15FC1A0
:1018500017D00E0111DF6A8A7B8A8C8A9D8A0F8AD3
:10186000188E298E089508DF6A887B888C889D8869
:101870008F89988D00C006D0D8DCC80FD91FCFCC77
:1018800001D005CDE4E6FBE6089530F09694879408
:101890007794679430F009C096948794779467940E
:1018A00020F09D248C247B246A24089554D09882AF
:1018B00089827A826B822C8259C0E2DFDE018091BC
:1018C000A46B49D088832982BA83AB832C824EC013
:1018D000E0E4F8E692E045C0E4E4F8E690E041C0D8
:1018E000E19A33D024D042C0E19A32D020D03EC019
:1018F00029D03CC0E19A32D0ED01ECE3E883E983E2
:10190000EA83EB83EC83ED8334C0E19A18D00FD0E7
:101910002DC0C2EFD9E92AC0C091A46BB6DCDE01AC
:101920001AD00882B983AA832B822C821FC0E0912F
:101930000110E470FC81FB7FFE2BFC830895C5E55C
:10194000D9E60895C0E5D9E60895CAE5D9E608952F
:10195000CFE5D9E60895C8E4D9E60895A0E4B9E64C
:101960000895F9DF84E05AD09883F5DFF7DF9BDC38
:1019700000C097E712D09DEA10D0F0DF86E090918A
:10198000040895FFFCCF9D91909302088A95B9F7C2
:101990008AE2C6D0E19B96CE08950090200A0916EF
:1019A000E0F32092200A2092210A529B77996FCE71
:1019B00008950100AD090201CE090401E109040105
:1019C000E60900000F0B00000F0B00000F0BFF01DA
:1019D000080A0801390A7001660A2001760A4001E6
:1019E0007C0A1001810A1001880A1000960A100072
:1019F000C30A02003214FFFFF89439D0F89449D09A
:101A00000C943D09F89429D03AD00C943D090E94D9
:101A1000710DF894A895FFCF0C943F09019009929D
:101A20008A95E1F7089529928A95E9F70895E4E8FF
:101A3000FBE60E942B09C4E6D9E60E942D09E4E6E4
:101A4000FBE60E942B09C4E6D9E60C942D09E4E8D4
:101A5000FBE60E942F090C941F09C0E0D8E6AAE11A
:101A6000B0E01FC0C0E0D8E6AEE1B0E027C0C0E003
:101A7000D8E680E4D8DFEFEFE0931F680895C0E474
:101A8000D8E6AAE3B0E00DC0C0E4D8E6AEE3B0E02B
:101A900015C0C0E4D8E680E8C6DFEFEFE0937F68CA
:101AA00008950E94FF08F001A095B095C095D095CB
:101AB000A083B183C283D383248208950E94FF0848
:101AC000F00180830895E2E0F2E000C0EF23F0959A
:101AD000009020690F22E02906C0E0E004C0EFEF8B
:101AE00002C0E1E000C0E093206900C0E0912069FD
:101AF0000C94FD08EF23F095009021690F22E02956
:101B000008C0E0E006C0E5E504C0EFEF02C0E3E096
:101B100000C0E093216900C0E09121690C94FB08AA
:101B20000895FFFFFFFFFFFFFFFFFFFFFFFFFFFF26
:00000001FF
; 
; *** EOF 
